:0400000094EF17F072
:102F2800000197EF17F0000E936E000E816E000EF1
:102F38000C6E000E0B6E000E0E6E000E0D6E35D070
:102F48000DC001F0010E026E012A02D0D89002369F
:102F5800012EFCD702508110816E000E046E000E07
:102F6800036E034A042A500E035CC30E0458D8A00B
:102F7800F8D7000E066E000E056E054A062A500E9A
:102F8800055CC30E0658D8A0F8D70DC001F0010E95
:102F9800026E012A02D0D8900236012EFCD70250C8
:102FA800FF0A8114816E0D4A0E2A0D500B5C0E50DB
:102FB8000C58D8B0C5D70B4A0C2A0C5004E1080E9F
:102FC8000B5CD8A0B8D7000E086E000E076E074A33
:102FD800082A500E075CC30E0858D8A0F8D7000E70
:102FE8000A6E000E096E094A0A2A500E095CC30EC1
:082FF8000A58D8B09AD7F7D7A8
:00000001FF
