:0400000047EF17F0BF
:102E8E0000014FEF17F0000E936E000E816E1200D0
:102E9E004AEC17F0000E056E000E046E000E076E63
:102EAE00000E066E044A052A980E041820E13A0E0A
:102EBE000518D8A41CD007BE06D0075018E1080E7E
:102ECE00065CD8B014D006C001F0010E026E012AC5
:102EDE0002D0D8900236012EFCD702508110816E9E
:102EEE00000E056E000E046E064A072ADBD7980EFA
:102EFE00041823E13A0E0518D8B407BE1ED00750A9
:102F0E0004E1080E065CD8A018D007BE06D0075004
:102F1E0014E1100E065CD8B010D006C001F0070EFA
:102F2E000116010E026E012A02D0D8900236012E31
:102F3E00FCD70250FF0A8114D2D7980E041824E150
:102F4E003A0E0518D8B407BE1FD0075004E1100E74
:102F5E00065CD8A019D007BE06D0075015E1180E92
:102F6E00065CD8B011D006C001F0070E0116015054
:102F7E000708026E010E036E022A02D0D8900336A5
:102F8E00022EFCD70350AAD7980E04188BE13A0EE6
:102F9E000518D8B407BE86D7075004E1180E065C94
:102FAE00D8A080D707BE06D0075003E1200E065CDE
:102FBE00D8B078D706C001F0070E011601500708E9
:102FCE00026E010E036E022A02D0D8900336022E34
:102FDE00FCD70350FF0A8114816E000E056E000EA1
:102FEE00046E064A072A200E06180710D8B456D7C4
:022FFE0059D7A1
:00000001FF
